:100000000C94C7070C940E080C940E080C94A828A6
:100010000C940E080C940E080C940E080C940E0808
:100020000C940E080C940E080C94E3140C949F147A
:100030000C94DE260C940E080C940E080C940E08FA
:100040000C940E080C940E080C940E080C940E08D8
:100050000C940E080C94DC100C940E080C940E08F2
:100060000C940E080C940E080C940E080C940E08B8
:100070000C940E080C940E080C940E080C940E08A8
:100080000C940E080C940E080C940E080C940E0898
:100090000C940E080C940E080C940E080C940E0888
:1000A0000C940E080C940E080C940E08000000002E
:1000B0000000000000000000000000000000000040
:1000C0007E0F00D4FFFFFFC7000000780000000093
:1000D000000000002A2B28000000000000000000A3
:1000E0000000000000000029000000002C1E342049
:1000F000212224342627252E362D3738271E1F206F
:100100002122232425263333362E37381F040506B3
:100110000708090A0B0C0D0E0F10111213141516F7
:100120001718191A1B1C1D2F3130232D35040506F5
:100130000708090A0B0C0D0E0F10111213141516D7
:100140001718191A1B1C1D2F3130354C00AF6A705F
:1001500068406777752E656475006A6F686E2E68F3
:10016000656C766573746F6E40676D61696C2E6344
:100170006F6D005C746578747B7D002025696E2549
:1001800020002E6C656674636F6C5B0A5D0A2E72CC
:1001900069676874636F6C5B0A5D0A00203C2D2000
:1001A0000020253E2520004368656572732C0A4AAD
:1001B0006F686E004368656572732C0A50726F66D3
:1001C0006573736F722048656C766573746F6E002B
:1001D000000000001700150008001A0014000404B5
:1001E000000000000A0009000700160004002B00B0
:1001F000000000000500190006001B001D00D75C70
:1002000004510251E300E000E200000000000000A1
:10021000000000001C0018000C00120013002D004C
:10022000000000000B000D000E000F00340028003D
:100230000000000011001000360037003800D85CC4
:100240002A002C0001514E00015300000000000064
:10025000000000003B00150A18011F0C1E0C3F0097
:1002600000000000420030002F004300040940005D
:1002700000000000000030022F0200001A5C410064
:10028000E000E300E30000003E000000000000008A
:10029000000000000E0A26012701690044006A00E0
:1002A00000000000095D2B022B000F5D45006B0074
:1002B00000000000085D3C003D00105D68006C001F
:1002C0002A002C00010000000100000000000000D6
:1002D000000000001708150829001A0814082A0849
:1002E000000000001B0819080608160803512A0020
:1002F000000000001C081D083A00070804086D00F3
:1003000000000100E300E000E20000000000000047
:10031000000000001C01500852004F0833000A5D25
:10032000000000004C00500051004F003500280034
:10033000000000002A0009080A0A0A0831000B5DC3
:100340002A002C00E3004B00000000000000000029
:10035000000000000000000000000000000000009D
:10036000000000000000000000000000010000008C
:10037000000000000000000000000000000000007D
:10038000000000000000000000000000000000006D
:10039000000000000000500A52024F0A00000C5DED
:1003A000000000000000500251024F0200000D5DED
:1003B000000000000000000050064F0600000E5D27
:1003C0002A002C00E30000000000000000000000F4
:1003D000000000002208210820081F081E08000055
:1003E000000000002202210220021F021E02000063
:1003F0000000000025022402230200000000D75C58
:1004000001000000000000000000000000000000EB
:10041000000000002E0024002500260035022D00DB
:10042000000000002E0221002200230033022800D9
:10043000000000002D001E001F00200038003102C7
:100440002A002C00270037003600000000000000C2
:1004500000DA12818FD9F1DB40A4A62EAF00A0C034
:1004600000A1C800AED580A83FD300408D14200065
:10047000808182838485868788898A8B8C8D8E8F04
:100480009091929394A0A1A2A3A4A5A6A7A8A9AA7B
:10049000ABACADAEAFB0B1B2B3B4C0C1C2C3C4C5F2
:1004A000C6C7C8C9CACBCCCDCECFD0D1D2D3D40049
:1004B000556E646566696E65640A004E554D424529
:1004C00052530A0053454C4543540A00544558546E
:1004D0000A00484F544B4559530A0051574552544E
:1004E000590A004C617965723A20002020202020B2
:1004F00020204B7972696120726576312E300A0AAC
:1005000000000000000000000000000000008080EB
:10051000C0E0F07078383C1C1E0E0E0E070707076F
:100520000707070707070707070707070E0E0E1E2F
:100530001C3C387870F0E0C08080000000000000B3
:1005400000000000000000000000000000000000AB
:10055000000000000000000000000000000000009B
:10056000000000000000000000000000000000008B
:10057000000000000000000000000000000000007B
:100580000000000000000000C0E0F07C3E1F0F07EC
:10059000030180C0E0F078383C1C1E0E0E07078770
:1005A000E77F1FFFFF1F7FE78707070E0E1E1C3C1C
:1005B0003878F0E0C0800103070F1F3E7CF0E0C0F8
:1005C000000000000000000000000000000000002B
:1005D000000000000000000000000000000000001B
:1005E000000000000000000000000000000000000B
:1005F00000000000000000000000000000000000FB
:100600000000000000F0FCFF1F07010000C0F0FC2C
:10061000FEFFF7F3B1B03030303030303078FE8745
:10062000010000FFFF00000187FE783030303030DD
:100630003030B0B1F3F7FFFEFCF0C0000001071F3F
:10064000FFFCF000000000000000000000000000BF
:10065000000000000000000000000000000000009A
:10066000000000000000000000000000000000008A
:10067000000000000000000000000000000000007A
:1006800000000000FFFFFF0000000000FEFFFF0170
:1006900001071E78E181838386868C8C9898B1B798
:1006A000FEF8E0FFFFE0F8FEB7B198988C8C8686E4
:1006B000838381E1781E070101FFFFFE0000000037
:1006C00000FFFFFF00000000FFFF0000C0C030304F
:1006D0000000F0F0000000000000F0F00000F0F07A
:1006E000C0C030303030C0C000003030F3F3000004
:1006F00000000000303030303030C0C0000000005A
:1007000000000000FFFFFF00000000007FFFFF80EF
:1007100080E0781E8781C1C16161313119198DED89
:100720007F1F07FFFF071F7FED8D191931316161B1
:10073000C1C181871E78E08080FFFF7F000000003C
:1007400000FFFFFF000000003F3F03030C0C3030B0
:10075000000000003333333333330F0F00003F3FCB
:100760000000000000000000000030303F3F30304B
:1007700000000C0C3333333333333F3F00000000B1
:1007800000000000000F3FFFF8E0800000030F3F73
:100790007FFFEFCF8D0D0C0C0C0C0C0C0C1E7FE1B1
:1007A000800000FFFF000080E17F1E0C0C0C0C0C91
:1007B0000C0C0D8DCFEFFF7F3F0F03000080E0F8A2
:1007C000FF3F0F00000000000000000000000000DC
:1007D0000000000000000000000000000000000019
:1007E0000000000000000000000000000000000009
:1007F00000000000000000000000000000000000F9
:10080000000000000000000003070F3E7CF8F0E04D
:10081000C0800103070F1E1C3C38787070E0E0E1D7
:10082000E7FEF8FFFFF8FEE7E1E0E0707078383CA3
:100830001C1E0F07030180C0E0F0F87C3E0F070389
:1008400000000000000000000000000000000000A8
:100850000000000000000000000000000000000098
:100860000000000000000000000000000000000088
:100870000000000000000000000000000000000078
:100880000000000000000000000000000000010166
:1008900003070F0E1E1C3C3878707070E0E0E0E03B
:1008A000E0E0E0E0E0E0E0E0E0E0E0E07070707800
:1008B000383C1C1E0E0F0703010100000000000061
:1008C0000000000000000000000000000000000028
:1008D0000000000000000000000000000000000018
:1008E0000000000000000000000000000000000008
:1008F00000000000000000000000000000000000F8
:100900000000AE05010902A10185020901A100054F
:100910000919012905150025019505750181029523
:1009200001750381010501093009311581257F9584
:10093000027508810609381581257F9501750881A2
:1009400006050C0A38021581257F95017508810678
:10095000C0C005010980A101850319012AB700154E
:100960000126B700950175108100C0050C0901A191
:1009700001850419012AA002150126A0029501751E
:10098000108100C005010906A101050719E029E74A
:1009900015002501950875018102950175088101F1
:1009A0000507190029FF150026FF00950675088127
:1009B0000005081901290595057501910295017534
:1009C000039101C009023B00020100A0FA090400E2
:1009D000000103010100092111010001224000076B
:1009E00005810308000A0904010001030000000951
:1009F00021110100012281000705820320000A1253
:100A000001100100000008EDFE00000100010203DA
:100A1000010403300000001E034B007900720069DE
:100A200000610020004B006500790062006F0061EA
:100A3000007200640000001003730070006C006915
:100A40000074006B00620000000403090400000051
:100A50000000003E5B4F5B3E003E6B4F6B3E001C58
:100A60003E7C3E1C00183C7E3C18001C577D571CE9
:100A7000001C5E7F5E1C0000183C180000FFE7C3EE
:100A8000E7FF00001824180000FFE7DBE7FF003055
:100A9000483A060E00262979292600407F050507D9
:100AA00000407F05253F005A3CE73C5A007F3E1C32
:100AB0001C0800081C1C3E7F0014227F2214005FCB
:100AC0005F005F5F0006097F017F00006689956A0D
:100AD0000060606060600094A2FFA2940008047E41
:100AE00004080010207E20100008082A1C080008B6
:100AF0001C2A0808001E10101010000C1E0C1E0CE2
:100B00000030383E383000060E3E0E060000000071
:100B100000000000005F0000000007000700001454
:100B20007F147F1400242A7F2A1200231308646292
:100B300000364956205000000807030000001C2220
:100B40004100000041221C00002A1C7F1C2A0008D2
:100B5000083E0808000080703000000808080808F7
:100B6000000000606000002010080402003E5149AF
:100B7000453E0000427F400000724949494600213D
:100B800041494D33001814127F100027454545395F
:100B9000003C4A49493100412111090700364949C1
:100BA000493600464949291E000000140000000093
:100BB00040340000000008142241001414141414DE
:100BC000000041221408000201590906003E415D5F
:100BD000594E007C1211127C007F49494936003E73
:100BE00041414122007F4141413E007F4949494105
:100BF000007F09090901003E41415173007F080847
:100C0000087F0000417F4100002040413F01007FFC
:100C100008142241007F40404040007F021C027FB8
:100C2000007F0408107F003E4141413E007F0909DA
:100C30000906003E4151215E007F09192946002620
:100C4000494949320003017F0103003F4040403FD2
:100C5000001F2040201F003F4038403F0063140821
:100C60001463000304780403006159494D430000F4
:100C70007F41414100020408102000004141417FB2
:100C8000000402010204004040404040000003070D
:100C90000800002054547840007F2844443800382D
:100CA0004444442800384444287F0038545454189D
:100CB0000000087E09020018A4A49C78007F0804A4
:100CC00004780000447D4000002040403D00007F4B
:100CD000102844000000417F4000007C0478047824
:100CE000007C0804047800384444443800FC18248C
:100CF00024180018242418FC007C08040408004868
:100D0000545454240004043F4424003C4040207CBC
:100D1000001C2040201C003C4030403C0044281077
:100D20002844004C9090907C004464544C44000053
:100D3000083641000000007700000000413608003E
:100D4000000201020402003C2623263C00000000B1
:100D5000000000404040F0F8F8FF38FFF8F83FF896
:100D6000F8FF38FFF8F8F0404040000000000000B5
:100D700080C0C0C0800000C0C08000000080C0C033
:100D800000C0C0000080C0C00000000000C0C0C0A3
:100D9000C0C000C0C0000000000000000000000053
:100DA0000000000000000000000000000000000043
:100DB0000000000000000000000000000000000033
:100DC000000000000000000000000000C0F0F8FC7F
:100DD0003E1E06010000007F4141417F007F4141EE
:100DE000417F000080C0E07E5B4F5BFEC00000C022
:100DF00000DCD7DEDEDED7DC00C000000000000033
:100E000000000000000000000000000000000000E2
:100E1000000000494949FFFFFFFFE0DFBFBF00BFFF
:100E2000BFDFE0FFFFFFFF49494900000000001F4E
:100E30003F6060E0BF1F007F7F071E381E077F7F77
:100E4000007F7F0E1F3B716000000000007F7F0C61
:100E50000C0C007E7E007F7E0303007F7E03037EFA
:100E60007E03037F7E000F3E703C063C703E0F0009
:100E7000327B49493F7E007F7E0303001E3F696944
:100E80006F2600000000000000000000030F1F3F5D
:100E90003C7870600000007F4141417F007F41410C
:100EA000417F00307B7F7830202030787F3B00030B
:100EB000000F7F0F0F0F7F0F0003000000000000E6
:100EC0000000000000000000000000000000000022
:100ED000000000010101070F0F7F0F7F0F0F7E0F32
:100EE0000F7F0F7F0F0F07010101000000000000BE
:100EF00000000000010100000000000000000000F0
:100F000000000000000000000000000000000000E1
:100F100000000000000000000000000000000000D1
:100F200000000000000000000000000000000000C1
:100F300000000000000000000000000000000000B1
:100F400000000000000000000000000000000000A1
:100F50000000000000000000000000000000000091
:100F60000000000000000000000000000000000081
:100F70000000000000000000000000000000000071
:100F8000000000000000000000000000000011242C
:100F90001FBECFEFDAE0DEBFCDBF04B603FE27C031
:100FA0008091B5069091B606A091B706B091B806AB
:100FB0008730904BA740B04BD1F41092B5061092F9
:100FC000B6061092B7061092B80614BE84B7877F93
:100FD00084BF0FB6F894A8958091600088618093D3
:100FE0006000109260000FBEE0E0F8E3099526E093
:100FF000A4E8B1E001C01D92A53BB207E1F711E002
:10100000A0E0B1E0E2EFF9E502C005900D92A4384E
:10101000B107D9F70E9464210C94BC2C0C940000F9
:10102000E8EDF0E080818E7F80831092E2001092E4
:10103000DA001092E100A0EEB0E08C9181608C9318
:1010400080818F77808319BCA7EDB0E08C918E7F73
:101050008C9380818F7E80831092910208952091DD
:10106000E4003091E50095E6A9012091EC00822F83
:10107000817020FF06C08091E80080FF06C080E0FC
:1010800008952091E80022FD1AC080919E028823D5
:1010900089F0853089F08091EB0085FD0FC02091AB
:1010A000E4003091E50042175307F9F29150E1F660
:1010B00084E0089582E0089583E0089581E0089532
:1010C000EF92FF920F931F93CF937C018B010E94AD
:1010D0002F08C82F811117C08091E80085FD0BC033
:1010E0008091E8008E778093E8000E942F08882383
:1010F00099F3C82F08C0F70181917F018093F10017
:101100000150110949F78C2FCF911F910F91FF903A
:10111000EF9008958091A00287FF13C08091E800AE
:1011200082FF06C08091E8008B778093E80004C0BE
:1011300080919E028111F2CF089580919E028823B2
:10114000D9F38091E80080FFF8CF8091E8008E7796
:10115000ECCF982F9093E900242F762F50E0891739
:1011600031F07091EC002091ED005091F00021FDE4
:1011700007C09F5F973071F78093E90081E0089581
:101180003091EB003E7F3093EB003091ED003D7FDE
:101190003093ED003091EB0031603093EB007093B1
:1011A000EC002093ED005093F0002091EE0027FD1D
:1011B000E0CF80E00895CF92DF92EF92FF920F93FD
:1011C0001F93CF93DF93C8EDD0E088818F7E888313
:1011D000E7EDF0E080818160808384E082BF81E080
:1011E0008093910288818E7F888302EE10E0F8015F
:1011F00010821092DA0081EEC82ED12CF6011082F6
:1012000088818F77888388818068888388818F7DB3
:10121000888319BC10929E0210929F0210929D0228
:1012200010929C0290EEE92EF12CF70180818B7FC9
:10123000808388818160888342E060E080E00E9452
:10124000A908F60180818E7F8083F801808181600A
:101250008083808188608083F70180818E7F808396
:10126000888180618883DF91CF911F910F91FF90DA
:10127000EF90DF90CF900895FC01CB012091A60262
:101280003091A7022617370790F0009729F4209194
:10129000E8002E772093E80040E0009751F44111D8
:1012A00008C08091E80082FF31C080E00895C90144
:1012B000F3CF20919E022223A9F12530A9F120919C
:1012C000E80023FD2DC02091E80022FDEACF209107
:1012D000E80020FFE2CF3091F3002091F200009768
:1012E00019F02830310558F041E02830310509F077
:1012F00040E02091E8002E772093E800CECF419186
:101300004093F10001972F5F3F4FE9CF80919E02FC
:10131000882341F0853041F08091E80083FFC1CF00
:1013200081E0089582E0089583E0089580919E020F
:10133000843011F482E0089581E008958091930251
:10134000089590918302803F41F48091840287FD4B
:1013500010928402992371F00895813F29F48091BD
:1013600084021816ACF3F6CF823F81F497FFF2CFD8
:10137000109283028091840290918502892B909132
:101380008602892B49F710927E020895833F19F453
:10139000191674F3DFCF893F39F48091850218164E
:1013A000CCF610928502D6CF8A3F29F4809185022F
:1013B00087FFD0CFF6CF8B3F39F48091860287FF2D
:1013C000C9CF10928602C6CF8C3F29F48091860245
:1013D0001816BCF3BFCF843F31F4809182028E7F18
:1013E00080938202B7CF853F21F4809182028D7F66
:1013F000F7CF863F21F4809182028B7FF1CF873F28
:1014000021F480918202877FEBCF883F21F4809185
:1014100082028F7EE5CF8D3F31F480910C028E7F6A
:1014200080930C0297CF8E3F21F480910C028D7F28
:10143000F7CF8F3F09F08ECF80910C028B7FF0CFDA
:1014400080910C0280FD14C081FD14C082FD16C085
:1014500080917E02882381F08F3080F42AE2829F7F
:10146000C00111246FE070E00E946729862F089563
:101470008AE0089585E1089581E008958AE208955B
:1014800080910C0280FD16C081FD16C082FD16C041
:1014900080917E02882381F0843180F42AE0829F4B
:1014A000C001112464E170E00E946729862F672B38
:1014B00039F0089582E0089585E008958AE008955E
:1014C00081E00895803F31F40E94400A8195809325
:1014D00084020895813F19F40E94400AF8CF823FA8
:1014E00031F40E94400A8195809383020895833FDE
:1014F00019F40E94400AF8CF893F29F40E94200A7B
:101500008093850208958A3F21F40E94200A8195E4
:10151000F7CF8B3F31F40E94200A81958093860299
:1015200008958C3F19F40E94200AF8CF843F31F4CB
:10153000809182028160809382020895853F21F428
:10154000809182028260F7CF863F21F480918202EF
:101550008460F1CF873F21F4809182028860EBCFD5
:10156000883F21F4809182028061E5CF8D3F31F484
:1015700080910C02816080930C0208958E3F21F4CB
:1015800080910C028260F7CF8F3FB9F780910C02F7
:101590008460F1CF9C014FB7F894809170029091D4
:1015A0007102A0917202B09173024FBF821B930B24
:1015B0000895809107028111109207020895809189
:1015C000060290910502892B90910402892B809349
:1015D000840190910702992391F0892B80938401D3
:1015E00020E086E891E0FC013081019631112F5F07
:1015F00031E08C389307B9F721110E94D90AE091A4
:101600001A02F0911B02309731F00280F381E02D35
:1016100084E891E009940895E6E8F1E09191891356
:1016200003C0DF0111971C9291E0EC38F907B1F784
:101630000895A6E8B1E0EFEF90E02D91821751F008
:10164000EF3F19F4211101C0E92F9F5F9630A9F7F0
:10165000EF3F09F408950E2E000CFF0BEC57FE4FE0
:1016600082830895E92FEE0FEE0FEE0FE80F982F0B
:101670009770E695E695E69585E0E89FF0011124E0
:10168000E552FE4F50E040E080E0219130E0092E2D
:1016900002C0369527950A94E2F721703327042E6D
:1016A00001C0220F0A94EAF7822B4F5F5F4F45304B
:1016B000510559F70895990F990F990FE92FE80FE0
:1016C000877041E001C0440F8A95EAF7E695E695F8
:1016D000E69585E0E89FF0011124E552FE4F30E0E9
:1016E00020E070E05191DF011197CB01022E02C082
:1016F000969587950A94E2F78170819585278423D2
:1017000085278C932F5F3F4F2530310559F708957A
:10171000282F80912A0290912B02A0912C02B09147
:101720002D020097A105B10549F004C0B695A79513
:10173000979587952A95D2F78170089580E008954E
:101740008091DA019091A901981301C008958F5FEB
:101750008770FACF882341F0809590910502892304
:10176000809305020C94DF0A0895882339F0909144
:101770000502892B809305020C94DF0A08958823C3
:1017800041F08095909106028923809306020C9483
:10179000DF0A0895882339F090910602892B8093FF
:1017A00006020C94DF0A089520919B0130919C0160
:1017B0002817390771F090939C0180939B01E09169
:1017C0001A02F0911B02309721F00084F185E02D80
:1017D000099408952091990130919A0128173907A9
:1017E00071F090939A0180939901E0911A02F0911F
:1017F0001B02309721F00680F781E02D09940895AF
:10180000E0911A02F0911B02309721F00190F081D3
:10181000E02D099480E008959091170292FF06C090
:10182000282F28712830F9F4877F846093FF06C041
:10183000282F28712831F1F4877E846120911802C5
:1018400020FF06C0382F38713830D9F4877F816087
:1018500021FF06C0282F28712831D1F4877E8161AD
:1018600094FD877E0895282F24712430F9F68B7F0C
:101870008860DCCF282F2471243101F78B7E8861AA
:10188000DDCF382F3171313019F78E7F8860E0CF8E
:10189000282F2171213121F78E7E8861E1CFCF93EE
:1018A000DF9328E0829FF0011124E70FF11DA3E0F0
:1018B000EE0FFF1FAA95E1F7E60FF11DEE0FFF1FD8
:1018C000E053FE4FC591D491CE01C03ED10509F43D
:1018D0006DC060F5C133D10509F4B2C088F4C932D6
:1018E000D10509F4A6C0CA32D10509F4B0C0C1308F
:1018F000D10549F12497C13AD10508F063C023C04E
:10190000C933D10509F44BC0C238D10509F447C029
:10191000C533D10509F486C0C83AD10508F09EC088
:10192000C53AD10520F3849790640DC0C43ED1051B
:1019300009F45BC058F4C23ED10509F446C0C33E69
:10194000D10509F447C0DF91CF910895C63ED10576
:1019500009F456C0C73ED10509F459C0C11532E596
:10196000D30708F0AEC0C11541E5D40708F0F8C0B0
:10197000C83ED10540F3C11520E5D20708F086C066
:10198000C11530E4D30708F0E8C0CF3FD10511F00E
:1019900008F076C09065C03FD105A8F613C020912D
:1019A0001702237081F280EE90E0CDCF20911702D4
:1019B00020FDF8C03091180230FFC5CF83EE90E0D3
:1019C00024FFC1CF90E080E0BECF2091170222FD1E
:1019D000F5CFB9CF2091170222FDE7C03091180250
:1019E00030FDE1CF24FFAFCFEDCF2091180221FFD2
:1019F000AACF8091170284FDE5CF87EE90E0A3CFB8
:101A00002091170223FF9FCF24FDDCCFF6CF20913A
:101A1000170223FDCDC03091180231FFE3CF84EED1
:101A200090E091CF2091170225FF8DCF89E290E0C1
:101A30008ACF2091170225FF86CF85E390E083CFE0
:101A40002091170226FF7FCF8AE290E07CCF209181
:101A5000170226FF78CF81E390E075CF9E01285AC8
:101A600031092731310508F0ADCF885AE82FF0E071
:101A7000EE0FFF1FEB5DFE4F80819181946463CF79
:101A8000DA95C115DF4108F45ECF9CCF9E01F4E0EA
:101A900036952795FA95E1F723708695869583709C
:101AA00030E2839FC0011124922BC37021E030E00B
:101AB00002C0220F331FCA95E2F7822B932B9C683A
:101AC00042CFC11546E5D40718F5C11525E5D20763
:101AD00008F052C0C11534E5D307A8F49C2F9695A1
:101AE0009695AE014370552721E030E002C0220FE9
:101AF000331F4A95E2F740E2C115D345B0F5949FF4
:101B0000C0011124DACF9C2F8827846F906A1BCFE5
:101B1000C1158AE5D80780F4C11599E5D907A8F55C
:101B2000CE0198558F3F910511F008F04BCF9C2FB7
:101B30008827806F906A07CFCE019056811590421A
:101B400008F040CF8D2F8F710E940C0C90E0982FE1
:101B5000882788279F718C2B16C09F70906AF3CEC0
:101B60009C2F8827816F906AEECE949FC00111242C
:101B7000822B932B9A68E7CE0E940C0C90E0982F52
:101B8000882788279F719062DECE8C2F8F700E94ED
:101B90000C0C34E0D695C7953A95E1F7CF709C2FA1
:101BA0009069D1CE89E390E0CECE82EE90E0CBCEAC
:101BB00086EE90E0C8CEBF92CF92DF92EF92FF9276
:101BC0000F931F93CF93DF938C01C0902A02D09084
:101BD0002B02E0902C02F0902D028091080290914F
:101BE0000902A0910A02B0910B02C82AD92AEA2A56
:101BF000FB2ACFE1D0E0BC2ED701C6010C2E04C0D9
:101C0000B695A795979587950A94D2F780FD0EC053
:101C1000219788F7B12C8B2DDF91CF911F910F91D8
:101C2000FF90EF90DF90CF90BF900895B8018C2F78
:101C30000E944F0C019761F3EECFCF93DF93D82F23
:101C4000C92F0E94DB0D6D2F7C2FDF91CF910C945B
:101C50004F0C0E941D0E282F892F8F70392F32951F
:101C60003F70903C80F43A30B0F4343020F432309D
:101C700090F480E008953630E1F781E0283E88F066
:101C8000213FB9F70EC03C3011F03F3091F78695F7
:101C900086958695089581E0203F39F018F4283E16
:101CA00040F70895243F29F7FCCF0895CF93DF93A1
:101CB0009C01FB019A9581159F4160F5E901CC27B4
:101CC000D170D901AA27B270B90166277470A90131
:101CD0004427587034FF10C080E1CD2B09F480E018
:101CE000AB2B09F08062672B09F08064452B09F06B
:101CF0008068DF91CF91099481E0CD2B09F480E0D9
:101D0000AB2B09F08260672B09F08460452B89F3C7
:101D10008860EFCFDF91CF910895CF93DF93682F45
:101D20008091B1069091B2066A30B9F42091A80270
:101D30008B5A9240622F70E00E945329281B822FF9
:101D400066E00E944729C82FC15018F4DF91CF9157
:101D5000089580E20E948D0EF7CF6D30F9F49C015A
:101D60002B5A32404091A802642F70E0C9010E94B2
:101D70005329481B842FA901480F511D4115544078
:101D800018F080E030E020E0820F932F911D855500
:101D90009D4F9093B2068093B106D8CF26E0FC0108
:101DA000ABEAB6E001900D922A95E1F7603E08F4A7
:101DB00054C026E0FC0111922A95E9F7C091B106C2
:101DC000D091B20646E050E0BE018BEA96E00E9458
:101DD000C129CB5AD2409E012A5F3F4F892B21F166
:101DE00086E0D695C7958A95E1F741E050E0CA01B3
:101DF00002C0880F991FCA95E2F76091A9027091FD
:101E0000AA02862B972BB901E6E076956795EA95AD
:101E1000E1F702C0440F551F6A95E2F7842B952B1A
:101E20009093AA028093A9024091A802642F70E0C7
:101E3000C9010E945329481B463010F4240F311D5C
:101E4000211584E0380710F030E020E025553D4FA3
:101E50003093B2062093B10679CFF6E06F9FB001C0
:101E60001124635B754F46E050E00E94B829A6CF6D
:101E7000CF93DF93EC01FE018491811103C0DF91C8
:101E8000CF9108950E948D0E2196F5CFCF92DF92CB
:101E9000EF92FF920F931F93CF93DF936C017B011F
:101EA00064E670E088E70E940B27EC0197FD12C002
:101EB00010E000E0F601E00FF11F849164E670E0AD
:101EC0000E946727EC01892B29F40F5F1F4F0E1525
:101ED0001F0581F70E94F427CE01DF91CF911F915A
:101EE0000F91FF90EF90DF90CF9008952FB7F89467
:101EF0008091700290917102A0917202B091730270
:101F00002FBF805A9541AF4FBF4F8093740290937B
:101F10007502A0937602B0937702809178028111C6
:101F200008C062E070E08CE491E00E94460F892BCB
:101F300019F080917802089581E080937802F9CFBA
:101F4000CF9384E090E00E947A2CC82F81E290E049
:101F50000E947A2C982F8C2FCF910895CF93DF93E6
:101F600000D00F92CDB7DEB790919E02943019F554
:101F700089836A837B8382E08093E9008FEF90916D
:101F8000E800815095FD06C095ED9A95F1F70000A7
:101F90008111F5CF8091E80085FF0DC050E040E051
:101FA00063E070E0CE0101960E9460088091E80035
:101FB0008E778093E8000F900F900F90DF91CF9174
:101FC0000895CF93DF93D82FC92F0E9496098230AE
:101FD00011F0843039F46D2F7C2F84E0DF91CF91A4
:101FE0000C94AE0FDF91CF910895BC0183E00C9467
:101FF000AE0FCF93DF93D82FC92F0E94960982305E
:1020000011F0843001F582E08093E9008FEF909128
:10201000E800815095FD06C095ED9A95F1F7000016
:102020008111F5CF8091E80085FF0DC050E040E0C0
:1020300066E070E08D2F9C2F0E9460088091E80080
:102040008E778093E800DF91CF910895CF93DF934F
:10205000D82FC92F0E949609823011F0843049F59B
:1020600081E08093E9008FEF9091E800815095FD29
:1020700006C095ED9A95F1F700008111F5CF80919A
:10208000E80085FF16C050E040E068E070E08D2F6A
:102090009C2F0E9460088091E8008E778093E80072
:1020A00088E0ED2FFC2FA4E9B2E001900D928A9513
:1020B000E1F7DF91CF91089580919601811110C0D1
:1020C0008091D80080618093D8008AE18A95F1F7E9
:1020D00000C08091D90080FD0AC082E08093960103
:1020E00081E090919601913009F080E0089581E0BF
:1020F000F5CF6CEE7EEF90E080E00E94A62C60E0D1
:1021000082E090E00E94882C60E083E090E00E94F2
:10211000882C109208021092090210920A02109262
:102120000B0260E084E090E00E94882C60E081E295
:1021300090E00E94882C60E085E090E00E94882C6E
:1021400060E086E090E00E94882C6FEF87E090E0EE
:102150000E94882C40E050E0BA0188E090E00E94A4
:102160009A2C60E08DE090E00E94882C40E050E0E6
:10217000BA0188E190E00E949A2C60E087E190E04B
:102180000E94882C40E050E0BA018CE190E00E946F
:102190009A2C60E080E290E00E94882C40E050E0C1
:1021A000BA018FE090E00E949A2C40E050E0BA0122
:1021B00083E190E00C949A2C78941F921FB61F92A2
:1021C00011248F939F93AF93BF938091700290914E
:1021D0007102A0917202B09173020196A11DB11D0E
:1021E0008093700290937102A0937202B093730275
:1021F000BF91AF919F918F911F901FBE1F90189517
:102200002FB7F8948091700290917102A0917202A0
:10221000B09173022FBF0895E0911A02F0911B0252
:10222000309749F082E0809381020480F581E02DAF
:1022300081E892E009950E94001190937D028093BD
:102240007C02089510920502109204020E94DF0A97
:1022500086E0E1E8F2E0DF011D928A95E9F710924D
:102260007E0210920C020E940C1190E080E00E940D
:10227000EA0B90E080E00C94D40B60932A027093F8
:102280002B0280932C0290932D020C9422110F9319
:102290001F93CF93DF9300D000D0CDB7DEB741E0DE
:1022A00050E060E070E004C0440F551F661F771FC8
:1022B0008A95D2F7409550956095709580912A0245
:1022C00090912B02A0912C02B0912D028A019B01CA
:1022D000082319232A233B2309831A832B833C8356
:1022E000C901B8010F900F900F900F90DF91CF911F
:1022F0001F910F910C943D119091030280958923B9
:1023000080930302282F277071F4282F082E000CC9
:10231000330B9217130639F08595859585950E94A4
:1023200047111092030208950F931F93CF93DF93E9
:1023300000D000D0CDB7DEB741E050E060E070E003
:1023400004C0440F551F661F771F8A95D2F78091EE
:102350002A0290912B02A0912C02B0912D028A01A9
:102360009B01082B192B2A2B3B2B09831A832B83C8
:102370003C83C901B8010F900F900F900F90DF912F
:10238000CF911F910F910C943D11609308027093AF
:10239000090280930A0290930B020C94221110926E
:1023A0000602E6E8F1E086E0DF011D928A95E9F792
:1023B0000C9422111F93CF93DF93CDB7DEB7AA976A
:1023C0000FB6F894DEBF0FBECDBF80EA92E0FC01ED
:1023D00001962091F100208322E0883A9207B9F714
:1023E0008091A102893009F456C0C8F4823009F402
:1023F000B1C0833009F480C0813071F18091E80070
:1024000083FF85C28091A0029091A1029A3008F0CA
:102410007EC2E92FF0E0E254F34D0C947B298A3020
:1024200009F487C08B3051F78091A002813231F7D7
:102430008091A4029091A502892B01F78091E80078
:10244000877F8093E8000E948A088091A20280938F
:102450001F010E94CF11D2CF8091A002813A71F664
:102460008091E800877F8093E8008091A40290919A
:10247000A502892B61F468E084E992E070E00E9493
:102480003C098091E8008B778093E800B7CF60E04B
:1024900090E080E0F3CF8091A002813209F0AECFCE
:1024A0008091A4029091A502029708F0A7CF809195
:1024B000E800877F8093E8008091E80082FF17C0E2
:1024C0009091F3008091F200029729F48091F1003D
:1024D0008B7F813021F48091F10080939302809171
:1024E000E8008B778093E8000E948A0887CF80916C
:1024F0009E028111E1CF82CF8091A002813A09F042
:102500007DCF8091A4029091A502892B09F076CF0E
:102510008091E800877F8093E8008091E80080FF49
:10252000FCCF80911F018093F1008091E8008E77AD
:10253000D9CF8091A002813209F060CF8091E8006C
:10254000877F8093E8000E948A088091A30280938D
:10255000920254CF8091A002813A09F04FCF80912E
:10256000E800877F8093E8008091E80080FFFCCF3F
:1025700080919202D8CF803899F0823809F0C7C193
:102580008091A4028F70873008F0C1C18093E90068
:102590008091EB0085FB882780F91092E90006C046
:1025A00080919C0290919D02911182609091E8002F
:1025B000977F9093E8008093F1001092F100809152
:1025C000E8008E77A0C1882309F48EC1823009F01B
:1025D0009EC18091A202811191C18091A4028F704D
:1025E0002FEF280F263008F092C18093E900209148
:1025F000EB0020FF83C1933031F48091EB008062C7
:102600008093EB007BC19091EB0090619093EB0085
:1026100021E030E001C0220F8A95EAF72093EA001A
:102620001092EA008091EB008860EACF81116FC1BF
:102630001091A2021F778091E3008078812B809314
:10264000E3008091E800877F8093E8000E948A0879
:102650008091E80080FFFCCF8091E3008068809348
:10266000E30082E0111183E080939E0250C1805804
:10267000823008F04CC14091A2025091A3024C3D1F
:1026800083E05807A1F583E08A838AE289834FB704
:10269000F894DE01139620E03EE051E2E32FF0E0F3
:1026A00050935700E49120FF03C0E295EF703F5F25
:1026B000EF708E2F90E0EA30C0F0C7968D939D9317
:1026C0002F5F243159F74FBF8091E800877F8093B7
:1026D000E8006AE270E0CE0101960E943C09809118
:1026E000E8008B778093E80012C1C096E7CF209175
:1026F000A4023091A502852F99278330910509F115
:1027000060F48130910509F47EC0029709F0FFC0A2
:102710008BE390E0E4ECF9E03EC08132910509F4EE
:1027200066C0829709F0F3C02115310509F475C020
:102730002130310509F0EBC081E890E0E3E0F9E0F9
:102740002AC0CA019927423009F449C08330910553
:1027500068F40097B1F0019709F0D9C0E7E3FAE017
:10276000E4918E2F90E0E7E3FAE012C0039709F0BE
:10277000CEC0E1E1FAE0E4918E2F90E0E1E1FAE0F1
:1027800007C0E9E4FAE0E4918E2F90E0E9E4FAE092
:10279000009709F4BCC02091E800277F2093E8004F
:1027A0002091A6023091A7028217930708F49C019A
:1027B00040E021153105B1F5411134C08091E800A8
:1027C00082FD8DCF80919E02882309F488CF8530C9
:1027D00009F485CF8091E80083FFF0CF80CFE7E157
:1027E000FAE0E4918E2F90E0E7E1FAE0D1CF2115F5
:1027F000310571F02130310509F089C089E090E0A0
:10280000EFEEF9E0C8CF82E190E0EFEFF9E0C3CF5F
:1028100089E090E0E6EDF9E0BECF80E490E0E4E806
:10282000F9E0B9CF80919E02882309F458CF853012
:1028300009F455CF8091E80083FD51CF8091E800E5
:1028400082FDBCCF8091E80080FFB3CF9091F30070
:102850008091F2002115310519F08830910550F072
:1028600041E0089709F040E08091E8008E7780937E
:10287000E8009FCF44914093F100319621503109F7
:102880000196E8CF803809F042C08091E800877F48
:102890008093E80080919F028093F10090CE811197
:1028A00036C01091A202123090F58091E800877F27
:1028B0008093E80010939F020E948A08112311F070
:1028C00084E005C08091E30087FDFACF81E080932A
:1028D0009E0242E061EC81E00E94A90842E261ECC4
:1028E00082E00E94A90813C08091A202813079F48D
:1028F00081E0933009F080E080939D021092E9001E
:102900008091E800877F8093E8000E948A08809188
:10291000E80083FF0AC08091E800877F8093E80089
:102920008091EB0080628093EB00AA960FB6F8943A
:10293000DEBF0FBECDBFDF91CF911F9108951F92D3
:102940000F920FB60F9211242F933F934F935F93E3
:102950006F937F938F939F93AF93BF93CF93DF93A7
:10296000EF93FF93D091E900DF708091EC00C82FC6
:10297000C17080FDC0E81092E9008091F000877F6F
:102980008093F00078940E94DA111092E90080910F
:10299000F00088608093F000CD2BCF70C093E900E9
:1029A000FF91EF91DF91CF91BF91AF919F918F9167
:1029B0007F916F915F914F913F912F910F900FBE3B
:1029C0000F901F9018951F920F920FB60F9211241F
:1029D0002F933F934F935F936F937F938F939F9327
:1029E000AF93BF93EF93FF938091E10082FF09C003
:1029F0008091E20082FF05C08091E1008B7F80938F
:102A0000E1008091DA0080FF24C08091D80080FF2F
:102A100020C08091DA008E7F8093DA008091D90007
:102A200080FF9DC080E189BD82E189BD09B400FEBF
:102A3000FDCF81E080939E0280919102811109C0B7
:102A40000E9410080E94DB088091E200846080935D
:102A5000E2008091E10080FF17C08091E20080FFDA
:102A600013C08091E2008E7F8093E2008091E200AB
:102A700080618093E2008091D80080628093D800CA
:102A800019BC85E080939E028091E10084FF2BC0F9
:102A90008091E20084FF27C080E189BD82E189BD89
:102AA00009B400FEFDCF8091D8008F7D8093D800BF
:102AB0008091E1008F7E8093E1008091E2008F7E23
:102AC0008093E2008091E20081608093E200809137
:102AD0009F02882309F449C084E080939E020E94EB
:102AE000CF110E94000C8091E10083FF27C08091EC
:102AF000E20083FF23C08091E100877F8093E100A3
:102B000082E080939E0210929F028091E1008E7F6E
:102B10008093E1008091E2008E7F8093E2008091BB
:102B2000E20080618093E20042E060E080E00E9489
:102B3000A9088091F00088608093F000FF91EF91E8
:102B4000BF91AF919F918F917F916F915F914F91C5
:102B50003F912F910F900FBE0F901F90189519BCA9
:102B600010929E021092910274CF8091E30087FD33
:102B700002C081E0B2CF83E0B0CF882309F459C00E
:102B8000823871F40E94000C81FF53C089E30E94D7
:102B9000190B0E94DF0A89E30E940C0B0C94DF0AD8
:102BA000833859F40E94000C80FF43C083E50E94E3
:102BB000190B0E94DF0A83E5EFCF843859F40E9495
:102BC000000C82FF36C087E40E94190B0E94DF0AC6
:102BD00087E4E2CF9CEF980F913AF0F290E2980FE1
:102BE000983088F4877021E030E0A90102C0440FDA
:102BF000551F8A95E2F7CA018095909106028923B4
:102C000080930602CBCF9BE5980F933020F490E0A1
:102C100080E00C94EA0B98E5980F973120F490E04F
:102C200080E00C94D40B803F20F00E94A1090C940A
:102C30000C110895CF93C82F882309F48FC08238D0
:102C4000C1F40E94000C81FD89C089E30E94190B28
:102C50000E94DF0A2FEF31EE84E0215030408040A7
:102C6000E1F700C0000089E30E940C0BCF910C94A7
:102C7000DF0A8338A1F40E94000C80FD6FC083E559
:102C80000E94190B0E94DF0A9FEF21EE34E0915061
:102C900020403040E1F700C0000083E5E5CF8438F4
:102CA000A1F40E94000C82FD59C087E40E94190B18
:102CB0000E94DF0A8FEF91EE24E081509040204087
:102CC000E1F700C0000087E4CFCF8CEF8C0F813A92
:102CD00068F4E6E8F1E08191C817D1F131E0EC3811
:102CE000F307C9F78C2F0E94190BC0CF80E28C0F1D
:102CF000883068F4C77021E030E001C0220FCA9527
:102D0000EAF780910602822B80930602AFCF8BE513
:102D10008C0F833038F42C2F2452330BC901CF9100
:102D20000C94EA0BE8E5EC0FE73150F4F0E0EE0F1D
:102D3000FF1FEB5DFE4F80819181CF910C94D40BEE
:102D4000C03F60F08C2F0E94620ACF910C940C114E
:102D50008C2F0E940C0B0E94DF0AC4CFCF910895E4
:102D6000CF93C82F0E941A16C93349F42FEF87EE6C
:102D700093E0215080409040E1F700C000008C2F8C
:102D8000CF910C94BD15CF93DF93C0919D01D0914D
:102D90009E01209731F180919F019091A0010E94A6
:102DA000CA0A209101013091020128173907E0F485
:102DB000D26065EB7BE0CE010E94560E8C2F0E9404
:102DC0001A168C2F0E94BD156AEA7BE0CE010E9484
:102DD000560E1092A00110929F0110929E01109227
:102DE0009D01DF91CF9108958C2F0E94B016F1CFF5
:102DF000CF93C62F81E00E94880B882339F08AEA9E
:102E0000C11101C089EACF910C94B01682E00E94F2
:102E1000880B882329F08BEFC111F5CF8CEFF3CF0E
:102E200084E00E94880B882381F083EECC2349F054
:102E30000E941A168DE20E94B01683EECF910C9478
:102E4000BD150E941A168EE2F6CF89EFC111DBCFB5
:102E50008AEFD9CFFF920F931F93CF93DF93E82F81
:102E6000F0E0E453FF4FF490C82FC695C695C69581
:102E7000D0E0FE01E454FF4F0491877010E0082E6B
:102E800002C0159507950A94E2F701701127C45501
:102E9000DF4FFE01C491D0E002C0D595C7958A9559
:102EA000E2F7C170DD270115110519F081EE0E94CE
:102EB0001A16209719F086EE0E941A168F2D0E947E
:102EC000B016CD2B19F086EE0E94BD15012B41F0F6
:102ED00081EEDF91CF911F910F91FF900C94BD1562
:102EE000DF91CF911F910F91FF900895FF920F9363
:102EF0001F93CF93DF938C018AE0F82EF801849121
:102F0000882309F44BC0813009F044C0E8012196C0
:102F1000FE018491813049F42196FE0184910E9442
:102F2000B0168E010F5F1F4FE9CF823039F4E801F0
:102F30002296FE0184910E941A16F3CF833039F451
:102F4000E8012296FE0184910E94BD15EACF8430EB
:102F500041F7E8012296FE01249190E080E0FE0115
:102F600031962053330B2A30310548F00197C8F2CF
:102F7000EFE9FFE03197F1F700C00000F7CFF89ECE
:102F8000A001F99E500D1124C901840F951F2491B1
:102F9000EF01E5CF0E942A17E801C3CFDF91CF915F
:102FA0001F910F91FF900895FF920F931F93CF935E
:102FB000DF93C62FD42F022FFC0182818823A9F032
:102FC0006093A1010E940011909398018093970152
:102FD000C77081E001C0880FCA95EAF7DF91CF91F1
:102FE0001F910F91FF900C94CA0B1091A101161321
:102FF00034C080919701909198010E94CA0A883C40
:10300000910558F5C0E2CD0F1D17A9F01770FF24E8
:10301000F3948F2D01C0880F1A95EAF70E94BF0B19
:10302000C83048F48D2F877001C0FF0C8A95EAF7ED
:103030008F2D0E94CA0B802F0E94B016C830A0F4BA
:10304000D77081E001C0880FDA95EAF7DF91CF9160
:103050001F910F91FF900C94BF0BC77081E001C0CE
:10306000880FCA95EAF7F2CFDF91CF911F910F91A8
:10307000FF9008955F926F927F928F929F92AF928E
:10308000BF92CF92DF92EF92FF920F931F93CF9355
:10309000DF93CDB7DEB72C970FB6F894DEBF0FBE27
:1030A000CDBF7C01FC0183819481892B39F0D080D4
:1030B00011818D2D81238F3F09F089C52C960FB684
:1030C000F894DEBF0FBECDBFDF91CF911F910F915E
:1030D000FF90EF90DF90CF90BF90AF909F908F9038
:1030E0007F906F905F9008950E94DB0D082F682FEE
:1030F00089819A810E945B0B28E0029FF0011124D4
:10310000E10FF11DA3E0EE0FFF1FAA95E1F7ED0D12
:10311000F11DEE0FFF1FE053FE4F05911491F701D3
:103120008281F801E850FD45E930F10550F4E8539B
:10313000F34D0C947B29882321F084EB91E00E94CD
:103140007617F7018281882309F47FC00931FCE5F5
:103150001F0709F4EEC008F09BC007313CE51307D8
:1031600009F4ADC0809101019091020105970831E9
:103170004CE5140709F4A8C00933110508F083C011
:103180000D32110540F40832110508F05AC0043020
:10319000110508F45AC00E94C316809100018823CB
:1031A00009F496C080910602811192C00E9400111C
:1031B0009093A00180939F0110939E0100939D0125
:1031C00082E00E947C1180910302877009F476CF1F
:1031D000F7018281882309F471CF82E00E947C117B
:1031E0006DCF882309F4ADCF87EA91E0A8CF88237B
:1031F00009F4A7CF81EA91E0A2CF882309F4A1CFF7
:103200008CE991E09CCF882309F49BCF82E891E080
:1032100096CF882309F495CF8BE791E090CF882350
:1032200009F48FCF83E791E08ACF882309F489CF0F
:103230008AE591E084CF882309F483CF8EE491E07E
:103240007ECF0B32110509F4A6CF0E94C316033FAF
:10325000FCE51F0709F4F4C008F0D9C0083D3CE5BF
:10326000130709F4E9C0093D4CE5140709F4F0C05F
:1032700026E241EE61EE073D5CE5150749F5C70121
:103280000E94D417A0CF0436110509F484CFDDCFF6
:103290000B315CE5150709F4B6C00C316CE5160777
:1032A00049F00A317CE5170781F6809100018823F7
:1032B00009F4A9C0109200010E94C31609C08091B0
:1032C0000101909102010596909302018093010102
:1032D000F7018281882309F48EC41092A10106317E
:1032E000FCE51F0708F0B7C002302CE5120708F410
:1032F00075C10E94A00F90931802809317020631A7
:103300003CE5130708F0D0C002304CE5140708F084
:10331000BEC0609117021091180284E090E00E94F4
:10332000882C612F81E290E00E94882C0E94CF11AE
:103330004ACF809102018F93809101018F9380E2A7
:1033400091E09F938F931F9288E08F93BF92AF92EB
:103350000E94CE290FB6F894DEBF0FBECDBF650127
:103360007AE0972EF6018081882309F4B1CF81306D
:1033700009F046C091818281913049F4F2E0CF0E8C
:10338000D11C0E94B016EFEFCE1ADE0AEBCF9230BE
:1033900031F422E0C20ED11C0E941A16F4CF9330F1
:1033A00031F432E0C30ED11C0E94BD15ECCF943035
:1033B00021F04FEFC41AD40AE6CF52E0C50ED11C5B
:1033C00030E020E0A6014F5F5F4F8053990B8A30B9
:1033D000910550F021503109B0F28FE99FE001973B
:1033E000F1F700C00000F6CF929EB001939E700DE1
:1033F00011249C01260F371FF60181816A01E2CF5B
:103400000E942A17C0CF81E08093000161CF053F61
:103410006CE51607C9F027E245EE66EE063F7CE54F
:10342000170709F42CCF27E245EE64EE043F8CE544
:10343000180709F424CF4CCF27E245EE65EE1FCFE5
:1034400026E241EE60EE1BCF26E241EE62EE17CFA0
:1034500028E241E0F3CF98012A5F3C45293031054D
:1034600008F447CF0631FCE51F0709F0B7C080918B
:1034700006028A7A91E009F490E09093A20181110A
:10348000A9C089E20E94190B0E94DF0A9CCEF801B4
:10349000E350FC45809117028160E331F10590F41F
:1034A000EF52F34D0C947B290A5F1C45093011053E
:1034B00008F02FCF0C51134DF8010C947B2980910B
:1034C000170282608093170224CF809117028460D4
:1034D000F9CF809117028860F5CF80911802816042
:1034E0008093180216CF809118028260F9CF8091E4
:1034F00017028061E7CF809117028062E3CF80914D
:1035000017028064DFCF0E94CF118091170280687C
:10351000D9CF809117028C60D5CF8091180283603B
:10352000DFCF809117028E7FCDCF809117028D7FE4
:10353000C9CF809117028B7FC5CF80911702877FFB
:10354000C1CF809118028E7FCBCF809118028D7FE2
:10355000C7CF809117028F7EB5CF809117028F7DE4
:10356000B1CF809117028F7BADCF0E94CF11809198
:1035700017028F77A7CF80911702837FA3CF809107
:1035800018028C7FADCF8091170282FB992790F9AA
:1035900021E0922790FB82F990FB83F993CF8091F1
:1035A0001802982F909591708E7F892B90FB81F94E
:1035B00097CF0E94CF1190911702892F97FB87F91F
:1035C000805880CF61E08EE090E00E94882CA1CEF0
:1035D00060E0F9CF85E356CF85E316C30115FCE51E
:1035E0001F0709F446C00E3D1C4509F471C0F701E0
:1035F000C080D180882309F46EC0C6010E94DB0D13
:10360000182F682FC6010E945B0BB601812F0E9404
:103610004F0C8C01582EF701C580C2946FE0C62272
:10362000D280D1101092050280910302877099F028
:10363000DD2089F0812F807F803421F080E2800FAF
:10364000883048F082E00E947C11809103028770EC
:10365000772473948111712C812F82958F70882E1D
:10366000912C8C3008F071C0F401E351F34D0C94AF
:103670007B290E94CF113FEF44E35CE03150404092
:103680005040E1F700C0000081E08093E00080E25C
:103690008093D8001092C9008FE19EE40197F1F762
:1036A00000C0000087E090EBDC018093B5069093AA
:1036B000B606A093B706B093B80688E19CE00FB6B3
:1036C000F894A895809360000FBE90936000FFCFA0
:1036D0000E94791078CDC6010E94320B182F95CF29
:1036E000F12FFF70CF2E107F19F0C29450EFC5223A
:1036F000802FDD20C9F0CC2069F090E2900F983047
:1037000010F001110BC080910602C82AC092060277
:103710000E94DF0A802F0E941A1617C080910502AE
:10372000C82AC0920502F4CF0E94BD15CC2069F0D2
:10373000C094005E083010F0511049C0809106021C
:10374000C822C09206020E94DF0AE8E08E1A9108A1
:10375000F4E08F16910410F40E94000C7720A9F079
:103760008091030280FD11C0F70112828595859535
:1037700085950E949411C7010E943A188091030216
:103780008595859585950E94471185E0F701D501BE
:1037900001900D928A95E1F789819A810E94320BFE
:1037A000EA81F8E08F9FC00111248E0F911D23E064
:1037B000880F991F2A95E1F7E981E80FF92FF11D8C
:1037C000EE0FFF1FE053FE4F8591949177CC8091CF
:1037D0000502C822C0920502B6CF212F2F70622E9B
:1037E000107F103219F0629440EF6422552071F07E
:1037F00031E0531661F1DD20B9F1CC2071F1F70110
:10380000858180FF87CF8F70858327C0DD2091F071
:1038100090910702862D892BC11003C00E94CA0B0C
:1038200094CF41E0C412FACF891709F48ECF809368
:1038300007028BCFC11006C00E94D90A862D0E94B4
:10384000BF0B83CF51E0C51609F47FCFF5CFDD2044
:1038500031F065E06C1508F478CF862DDFCF74E089
:103860007C1508F472CFEACFCC2041F3093349F438
:10387000FFEF17EE23E0F15010402040E1F700C0C9
:103880000000802F0E94BD1560CF812F8695869500
:10389000837061F0813009F058CFC8019370D11066
:1038A00002C090E080E00E94D40B4FCFC80193701B
:1038B000D11002C090E080E00E94EA0B46CF802F3A
:1038C000DD2029F00E94620A0E940C113ECF0E9466
:1038D000A109FACF812F837009F072C0D11035CFC2
:1038E000202F229526952770220F220F402F4F70F0
:1038F00050E070E060E0022E04C0440F551F661FC8
:10390000771F0A94D2F780E090E0DC0104FF0FC03B
:103910008FE090E0A0E0B0E004C0880F991FAA1FDC
:10392000BB1F2A95D2F780959095A095B095E12F71
:10393000E695E695E370E23051F1E33009F100914C
:1039400008021091090220910A0230910B02E13025
:1039500099F0842B952BA62BB72BAC01BD014023EE
:1039600051236223732349875A876B877C87CB0156
:10397000BA010E94C511E9CE402B512B622B732B4B
:103980008A019B01082B192B2A2B3B2B12C0842B5D
:10399000952BA62BB72B40910802509109026091FC
:1039A0000A0270910B028C019D010427152726271E
:1039B000372709871A872B873C87C901B801D9CFD8
:1039C0008695DD2011F0812F8170882309F4BDCE0A
:1039D000202F229526952770220F220F402F4F70FF
:1039E00050E070E060E0022E04C0440F551F661FD7
:1039F000771F0A94D2F780E090E0DC0104FF0FC04B
:103A00008FE090E0A0E0B0E004C0880F991FAA1FEB
:103A1000BB1F2A95D2F780959095A095B095E12F80
:103A2000E695E695E370E23081F1E330F9F000913C
:103A30002A0210912B0220912C0230912D02E130AC
:103A400089F0842B952BA62BB72BAC01BD0140230D
:103A500051236223732349875A876B877C87CB0165
:103A6000BA0110C0402B512B622B732B8A019B0192
:103A7000082B192B2A2B3B2B09871A872B873C876E
:103A8000C901B8010E943D1160CE842B952BA62B55
:103A9000B72B40912A0250912B0260912C02709119
:103AA0002D028C019D010427152726273727E4CFF7
:103AB0001F70DD2029F0812F0E949411802FAECE3F
:103AC000802F0E94BF0B812F0E9447113ECE802F76
:103AD00022EF521609F446C0251570F030EF531648
:103AE00009F141EF5416B1F1DD2009F460C0C110B5
:103AF00011CE812F8F7133C053EF5516C1F164EF92
:103B00005612F2CFDD2009F447C01F71812F0E94A9
:103B1000941158E0159FC001112483608093030223
:103B2000812F1DC0DD2089F074E07C1508F40DCED6
:103B30001F7181E090E0A0E0B0E004C0880F991F01
:103B4000AA1FBB1F1A95D2F7A4CF25E02C1508F4A5
:103B5000FCCDEECF812F8F71DD2009F4B5CF0E940F
:103B60009411F3CD812F8F71DD20C9F3ADCF60E0CB
:103B700070E0CB01DD2009F485CF1F7181E090E07A
:103B8000A0E0B0E0AC01BD0104C0440F551F661FAA
:103B9000771F1A95D2F75FCF81E00E947C1161E018
:103BA0006C1508F0D2CD82E00E947C11CECDCC20E5
:103BB00059F0893309F065CE7FEF87EE93E07150BD
:103BC00080409040E1F75BCE812F8F717DCF85E003
:103BD0009E012F5F3F4F5901D90101900D928A95A7
:103BE000E1F7F701228189819A8121117DCA0E9422
:103BF000320B082F81CA06311C4509F0F8CC8091A0
:103C0000A2018111E9CC89E20E940C0B3DCC1F93EB
:103C1000CF93DF938091A801807FA9F48091A501C3
:103C2000882389F08091DA01D091A9016091A301E4
:103C30007091A401A091A601B091A701C62FC7233E
:103C400016E0D81304C0DF91CF911F91089590E042
:103C5000109711F0CF3F19F401968770F2CF189F9B
:103C60009001199F300D1124F901E655FE4F418155
:103C70004713F2CF40814613EFCF42814111ECCF81
:103C8000438154814A1B5B0B483C510528F78091C6
:103C9000A8018F7080618093A801F901E155FE4F62
:103CA00080818F708061808383EA91E00E943A185E
:103CB000DF91CF911F910C94A00BAF92BF92CF9246
:103CC000DF92EF92FF920F931F93CF93DF93CDB7C5
:103CD000DEB72B970FB6F894DEBF0FBECDBF8C01B9
:103CE00085E0F801DE01179601900D928A95E1F7C3
:103CF000F80180819181E28023EAA22E21E0B22E98
:103D00006091A6017091A7016115710509F40EC1BA
:103D10003091A3014091A401242F23232F3F09F4C4
:103D200005C1C380D480F090A501F601E61BF70B16
:103D3000FF2009F4DFC02091A801522F507FE83CFA
:103D4000F10508F0BAC0511177C0FE2C491321C00B
:103D500038131FC0E1101DC02F7020612093A801EF
:103D6000C5010E943A188091A801F80185838F2D22
:103D70002B960FB6F894DEBF0FBECDBFDF91CF916B
:103D80001F910F91FF90EF90DF90CF90BF90AF9079
:103D90000895CD2829F0282F29232F3F09F0E4C0CA
:103DA00020E0F22FF170DF2EE091DA014091A901BD
:103DB00056E020FD1CC0EE20D1F28091A801816068
:103DC0008093A801F12CD3CF2E2F30E05E9FF0011D
:103DD0001124E655FE4F6181961306C0608186135B
:103DE00003C06281E612E7CFF9013196E770E41370
:103DF000EBCF8F8398878F8198850E941D0E292F86
:103E000022952F70903260F0225F2F70223078F46C
:103E10009F7051F0F8019581907F31F4D12C0AC048
:103E20009F7011F08823D1F3805E8830B8F3C80109
:103E30000E943A18FD2C9BCF491312C0381310C0B2
:103E4000E1100EC0F8012583C8010E943A1886E0EF
:103E5000F801A3EAB1E001900D928A95E1F787CFCE
:103E60008F8398878F8198850E94290E882309F176
:103E7000EE20F9F08091A801803270F02091A3012A
:103E80003091A4013A8329831B82DD82CC828E8308
:103E9000CE0101960E943A1886E0F801A3EAB1E04B
:103EA00001900D928A95E1F70E94071EFF24F3947A
:103EB0005ECFC8010E943A18F9CF51110AC083EAB7
:103EC00091E00E943A1886E0F50111928A95E9F78F
:103ED00079CF4913C5CF3813C3CFE110C1CFF80153
:103EE0002583C8010E943A1886E0F50111928A954F
:103EF000E9F73DCFE83CF105B8F7FE2CEE20C9F21A
:103F0000491303C0381709F4A2CF8F8398878F8194
:103F100098850E94290E8111BFCF8091A8018160F0
:103F20008093A801C8010E943A1821CFEE2009F41D
:103F3000C0CF8F8398878F8198850E94290EF82E95
:103F4000882309F4B6CF86E0F801A3EAB1E0019036
:103F50000D928A95E1F78091A3019091A4010E94AE
:103F60001D0E0E94071E03CF21E02E251ACF1F939E
:103F7000CF93DF93CDB7DEB767970FB6F894DEBF68
:103F80000FBECDBF4B8B5C8B6D8B7E8B8F8B1A8A5C
:103F900085E0FE017396DE011D9601900D928A95D3
:103FA000E1F786E0FE013D96DE01179601900D9245
:103FB0008A95E1F7CE0107960E945D1E882389F05D
:103FC00016E08091DA019091A90189134FC067969C
:103FD0000FB6F894DEBF0FBECDBFDF91CF911F911A
:103FE000089586E0FE013796DE01119601900D924C
:103FF0008A95E1F74A855B854115510509F37F8173
:104000006885862F87238F3FD9F22091A90130E060
:10401000C901019687709927E091DA01E81719061E
:1040200071F40E94CF111092A9011092DA0186E07A
:10403000E3EAF1E0DF011D928A95E9F7C1CF7983C8
:104040006A835D834C8396E0929FD001939FB00D6D
:104050001124A655BE4FFE01319601900D929A95FE
:10406000E1F78093A9010E94A00BAACF819FC00114
:10407000112486559E4F0E945D1E882309F4A7CF08
:104080008091DA0190E00196877099278093DA0198
:1040900098CF8F929F92AF92BF92CF92DF92EF9282
:1040A000FF920F931F93CF93DF9363E571E09DE041
:1040B000892E92E0992E27E5A22E21E0B22ED0E0A3
:1040C000EE24E394F12CDB018D91BD01E82FE29504
:1040D000EF70F0E091A18F70870101C0000F8A9509
:1040E000EAF7892F802B81A382A1C02FC0958C2352
:1040F00082A3B0EABA95F1F78BE5C82E81E0D82EFD
:1041000050E040E020E0D6013D916D01832F829583
:104110008F7090E0DC0190968C9190E03F7002C02F
:10412000959587953A95E2F780FD48C08E2D042E2F
:1041300001C0880F0A94EAF7282B4F5F5F4F483081
:10414000510509F781A18C2381A382A1082B02A329
:10415000F40180812817A1F1208381E0D82BFFEFA3
:104160008F1A9F0AA616B70609F0ADCFC0911602A6
:10417000DD2341F181E080938F010E940011909333
:104180008E0180938D0180918D0190918E010E940E
:10419000CA0A0697D8F0EC2FF0E0E35EFD4F80915D
:1041A0000D02808380910E02818380910F028283B1
:1041B00080911002838310928F0108C080E0BCCFF1
:1041C00080E0CCCF80918F018111DDCF0E945C1007
:1041D000882309F460C0C09115020E94FA289C014E
:1041E000892BB1F0809195018F5F80939501863086
:1041F00008F047C08D2FDF91CF911F910F91FF9055
:10420000EF90DF90CF90BF90AF909F908F900895E8
:10421000EC2FF0E0E35EFD4FD901A057BE4F8C912B
:1042200081932F5F3F4F24303105B1F7E0901902A1
:104230000E2D10E00B5D1D4FC0919401D8018C91A3
:10424000C81BFC2E09C0FA94D8018C918F5F8C9307
:1042500060E08E2D0E94F8161F14ACF38C2FC7FD62
:1042600080E0C81BC11103C010929501C3CFCF5F7E
:10427000F80180818150808361E08E2D0E94F816C4
:10428000F1CFE0911502F0E0E35EFD4F1082118264
:1042900012821382AFCFE0911602F0E0E35EFD4F91
:1042A00090E080E02191DC01A057BE4F2C93019655
:1042B00084309105B9F7E0912802F0E0EB5DFD4F05
:1042C00080818093940196CFCDB7DEB761970FB60A
:1042D000F894DEBF0FBECDBF84B7877F84BF0FB613
:1042E000F894A89580916000886180936000109296
:1042F00060000FBE80E890E00FB6F89480936100F4
:10430000909361000FBE85B7806885BF85B78068D0
:1043100085BF0E9410080E94DB088091E200846043
:104320008093E200789480919E028823A1F01091FE
:10433000E9001F709091EC00892F817090FD80E85A
:10434000182B1092E9008091E80083FD0E94DA1199
:104350001F701093E90082E084BD93E095BD9AEF51
:1043600097BD80936E000E945C1080930B010E94A9
:104370005C10882331F061E070E083E091E00E94FE
:10438000592880910B0180910B0194E0811190E0FC
:104390009093160284E0891B80931502A3E5B1E097
:1043A00047E551E061E070E08D91E82FE295EF7014
:1043B000F0E011A18F709B0101C0220F8A95EAF7EE
:1043C000922F9095912391A382A1822B82A34A17C9
:1043D0005B0751F7ABE5B1E043E651E061E070E027
:1043E0008D91E82FE295EF70F0E011A18F709B01A5
:1043F00001C0220F8A95EAF7922F9095912391A3FD
:1044000082A1822B82A34A175B0751F7EDE0F2E00D
:1044100085E192E0ADE1B2E011921D928E179F0707
:10442000D9F790E080E00E94822C8C3E9E4F11F0E4
:104430000E9479100E945C10811106C061E070E05A
:1044400083E091E00E94602882E080936E0280E821
:104450008093A8020E9405276DE070E083E694E057
:104460000E94460F892B09F046C080916E0263E0DE
:1044700070E081FDE9C180E694E00E94460F892B3F
:10448000D1F56DE070E080E594E00E94460F892B45
:1044900091F52FB7F8948091700290917102A091DC
:1044A0007202B09173022FBF805A9541AF4FBF4F38
:1044B0008093740290937502A0937602B093770272
:1044C000EBEAF2E080E094E0DF019C011D922150D4
:1044D0003040E1F7F093B206E093B1068FEF9FEF23
:1044E0009093AA028093A90281E08093790280933D
:1044F000780210926F0290E080E00E94822C8C3E45
:104500009E4F11F00E94791082E090E00E947A2C78
:10451000809388020E94A00F909318028093170244
:1045200083E090E00E947A2C482F50E070E060E039
:104530004C875D876E877F87CB01BA010E94C511CA
:1045400080910B01811106C085E380930D0186E601
:1045500080930C0120910D01A22FA295AF70B0E0C5
:1045600091963C9191972F7081E090E0BC01022ED2
:1045700001C0660F0A94EAF7462F409543239196AF
:104580004C93919792963C919297362B92963C93AE
:10459000929740910C01E42FE295EF70F0E031A189
:1045A0004F70042E01C0880F0A94EAF7982F909557
:1045B000932391A392A1892B82A390968C9190E052
:1045C00002C0959587952A95E2F7817020A130E089
:1045D00002C0359527954A95E2F792E020FF90E0DA
:1045E000892B8093290290910B0181E09827909369
:1045F0002802891B8093190285E191E090931B02A8
:1046000080931A02FF24F39444244394512C80E4B1
:10461000D82E97E0C92EBB24BA9480919E02853093
:1046200009F415C10E944920E82E0E945C108823DD
:1046300009F451C1E9E8F2E0ADE1B2E010E000E0D8
:10464000302F8D919191981709F43FC1292F282778
:1046500090E0AA24A3944A2D422309F431C19983FE
:104660003A838A2191E009F490E09B830E94001133
:104670008160782F9D838C8349815A816B818D81E4
:104680000E94B71FF801E757FD4F8081A826A0823E
:1046900080912902E82FEE0FEE0F80910D01A82FD7
:1046A000A295AF70B0E090962C9130E08F7002C070
:1046B000359527958A95E2F72170332780910C0173
:1046C000A82FA295AF70B0E090964C9150E08F70FB
:1046D00002C0559547958A95E2F7CA0181709927DE
:1046E00040FF02C082E090E0822B8E2B8093290253
:1046F000109128028F70E82FF0E0ED59FE4F808175
:1047000090912702890F8093270282306CF0E12F6D
:10471000012E000CFF0BEB5DFD4F80818F5F8083CE
:1047200060E0812F0E94F816809127028F3F6CF481
:10473000E12F012E000CFF0BEB5DFD4F80818150BE
:10474000808361E0812F0E94F81690912702892FC3
:10475000817897FF03C081508E6F8F5F809327020F
:1047600080917902882309F45FC1ABEAB2E0B0938B
:10477000B206A093B1060E945C10882309F453C2CC
:1047800080E794E00E94380F8BEE94E00E94380F8F
:1047900083EE94E00E94380F40912A0250912B0240
:1047A00060912C0270912D02CB01AA27BB270097A4
:1047B000A105B10509F49FC0AC01BD0180E1052F41
:1047C000162F272F3327011511052105310519F063
:1047D000885FB901A8018A019B01A4E0369527955D
:1047E00017950795AA95D1F70115110521053105F2
:1047F00019F08C5FB901A8018A019B01F2E036959E
:10480000279517950795FA95D1F7011511052105FB
:10481000310519F08E5FB901A80176956795579516
:104820004795452B462B472B09F08F5F823009F4C3
:10483000F4C108F062C0882309F468C0813009F42B
:10484000E9C180EB94E064C08DE594E016CE8091E0
:104850009E02843019F110921C0268E170E00FB6DC
:10486000F894A895609360000FBED092600083B763
:10487000817F846083BF83B7816083BF789488958C
:1048800083B78E7F83BF0FB6F894A89580916000A0
:10489000886180936000109260000FBE80919D023D
:1048A000882309F4BACE0E944920EDE1F2E081911B
:1048B000811164C285E292E08E179F07C1F7ADCEE9
:1048C0009F5FAA0C983009F0C6CE0F5F1F4F0830CB
:1048D000110509F0B5CEBF82B88619860E94001175
:1048E0008160782F9B878A874F81588569858B8562
:1048F0000E94B71FCDCE80E062CF833009F490C113
:10490000843009F09ECF8BEB94E002C08BED94E0F5
:104910000E94380F2091A9023091AA022115310579
:1049200009F457C080916F02811153C0082F10E025
:104930004201082E02C0880C991C0A94E2F7A401D7
:1049400042235323452B09F49BC190916E0290FDA5
:1049500099C18295880F880F807480931001980107
:104960003695279520931301815C80931101109255
:10497000140124E630E047E050E06EE071E088E7A3
:104980000E949627892B29F5A80186E0440F551F20
:104990008A95E1F780916E0280FD81C145555D4F9A
:1049A00004E610E020E430E060E488E70E94C327DA
:1049B000892B79F40E94760FC401809590958090A0
:1049C000A9029090AA02882299229092AA0280922B
:1049D000A90280917802882339F12FB7F894809149
:1049E000700290917102A0917202B09173022FBF78
:1049F0004091740250917502609176027091770235
:104A0000841B950BA60BB70BB7FD0EC080917802E7
:104A1000882351F062E070E081E099E00E94460F47
:104A2000892B11F410927802E1100E94760F86E033
:104A3000E1E8F2E0DE01119601900D928A95E1F72E
:104A40008091830290918402892B09F468C080913F
:104A50007F02909180020E94CA0A9C0180917E028E
:104A6000882309F4A6C12131310508F458C08F3FCD
:104A700019F08F5F80937E02109285021092860259
:104A800080918302181624F40E94400A80938302C6
:104A90008091830287FF05C00E94400A8195809320
:104AA000830280918402181624F40E94400A8093A5
:104AB00084028091840287FF05C00E94400A81958C
:104AC00080938402309183023323B1F020918402D9
:104AD000222391F045EB3403C0011124992309F4FA
:104AE00041C19093830255EB250390011124332398
:104AF00009F43BC1309384020E940C1180917C0226
:104B000090917D029093800280937F0286E0FE0167
:104B10003196A1E8B2E001900D928A95E1F780917B
:104B2000850290918602892B09F468C080917A02EF
:104B300090917B020E94CA0A9C0180917E02882388
:104B400009F432C12536310508F458C08F3F19F0F9
:104B50008F5F80937E021092830210928402809174
:104B60008502181624F40E94200A80938502809101
:104B7000850287FF05C00E94200A819580938502E7
:104B800080918602181624F40E94200A80938602DF
:104B90008091860287FF05C00E94200A819580933C
:104BA0008602309185023323B1F0209186022223C0
:104BB00091F065EB3603C0011124992309F4D8C0A4
:104BC0009093850275EB270390011124332309F498
:104BD000D2C0309386020E940C1180917C02909189
:104BE0007D0290937B0280937A0286E0FE013196EB
:104BF000A1E8B2E001900D928A95E1F70E94000CC5
:104C000090918702891709F408CD0E94000C8093C7
:104C1000870203CD82ED94E07BCE8CEC94E078CEDD
:104C200084EC94E075CE2091A9023091AA02ABEAFF
:104C3000B2E090E080E0FC01EF5FFA4F64914D91AB
:104C40006417A1F0AD0141505109FA016083AC0134
:104C500066E0569547956A95E1F7B20102C0660F86
:104C6000771F4A95E2F7AB01262B352B019681156C
:104C700074E0970701F73093AA022093A9024ACE65
:104C80008F5F54CE880F880F880F80931001109289
:104C90001301895F80931101C09214016ACEAEE2C4
:104CA000B2E0ED2D1D92EA95E9F72BE731E0398B63
:104CB000288B83E791E0E889F989A191F98BE88B4A
:104CC000FC012191CF01240F352F311DB90165550C
:104CD0007D4F7D876C87EA2FF0E0E25DFD4F30E08D
:104CE00020E06C2C621AA42C022E01C0AA0C0A949B
:104CF000EAF72C843D8400E0D1011D911D011A21A9
:104D0000662D601B6770762E062E000C770BB12F78
:104D100001C0BB0F7A94EAF77B2E719561957109FA
:104D20006770772701C016956A95EAF7712A108196
:104D3000712A70820F5F0830F9F62F5F3F4F31966E
:104D40002830310571F6E3E8F1E028893989E21766
:104D5000F30709F0B0CF04E610E020E430E04EE2C3
:104D600052E022CEF0928302BECEF0928402C4CEF4
:104D7000F092850227CFF09286022DCF80E189BD87
:104D800082E189BD09B400FEFDCF8091D8008F7DFE
:104D90008093D8008091E00082608093E000809151
:104DA000E00081FDFCCF39CC2D32314008F0D0CE6F
:104DB00025CF2536310508F05CCEB1CE1F921FB647
:104DC0001F9211248F939F93AF93BF9380911C02E6
:104DD000811113C08091700290917102A0917202B2
:104DE000B09173024196A11DB11D80937002909302
:104DF0007102A0937202B0937302BF91AF919F9121
:104E00008F911F901FBE1F9018951092B9008CE0D3
:104E10008093B8000895EF92FF920F931F93CF9362
:104E2000DF93182FEB011092BC0084EA8093BC0042
:104E30000E9400117C018091BC0087FF27C08091F7
:104E4000B900887F883029F08091B900887F80314F
:104E5000D9F51093BB0084E88093BC000E94001138
:104E60008C018091BC0087FF24C02091B900287F6D
:104E700090E080E02831B1F081E090E0203411F43E
:104E800090E080E09195819591090CC0CF3FDC07BF
:104E900091F20E9400118E199F098C179D0758F2FC
:104EA0008EEF9FEFDF91CF911F910F91FF90EF90C9
:104EB0000895CF3FDC07A9F20E940011801B910BDF
:104EC0008C179D0770F2ECCF8FEF9FEFEBCF0F9316
:104ED0001F93CF93DF93EB018093BB0084E8809313
:104EE000BC000E9400118C018091BC0087FF11C0A2
:104EF0002091B900287F81E090E0283211F490E001
:104F000080E0919581959109DF91CF911F910F914B
:104F10000895CF3FDC0741F30E940011801B910BE5
:104F20008C179D0708F38EEF9FEFEECFCF92DF92A5
:104F3000EF92FF920F931F93CF93DF936B018A0140
:104F4000F22EE32E622F732F0E940B27AC01E60195
:104F50000C0D1D1DC017D10711F057FF0DC084E9BE
:104F60008093BC00CA01DF91CF911F910F91FF90F8
:104F7000EF90DF90CF9008956F2D7E2D89910E9444
:104F80006727AC01E7CFCF92DF92EF92FF920F93AA
:104F90001F93CF93DF93C62F6A017901B8010E9456
:104FA0000B279C0197FD0DC0B8018C2F0E9467272D
:104FB0009C01E601EC0CFD1CCE15DF0511F037FF5E
:104FC0000DC084E98093BC00C901DF91CF911F918E
:104FD0000F91FF90EF90DF90CF900895B8018991E5
:104FE0000E9467279C01E8CF84E98093BC00089564
:104FF0008EE14A9B02C08150E1F74A9BFECF0895A3
:105000005A9880E28A95F1F75A9A0895FC013BE09C
:105010003A95F1F798E020E080E031E040E14A95F0
:10502000F1F7880F4A9B02C08160232742E04A952E
:10503000F1F7000040E14A95F1F7915079F790E1DE
:105040009A95F1F799B132E03A95F1F7000040E115
:105050004A95F1F792FB992790F992272081920FB8
:1050600090830895EF92FF920F931F93CF93DF9356
:105070000F92CDB7DEB719828C017C01E60EF11CD0
:105080000E151F0561F481E09981911180E00F9068
:10509000DF91CF911F910F91FF90EF9008950E94A3
:1050A000F827CE0101960E940628F80181938F010E
:1050B000E7CF9093B4068093B306529A5A9A089514
:1050C0009093B4068093B30652985A9AEA9AE9E606
:1050D000F0E080818F7C808308956150770B91E0B0
:1050E00001C0990F6A95EAF720E031E0911108C0FC
:1050F000222391F05A9A80E28A95F1F75A980895FE
:10510000492F482339F05A9A232740E24A95F1F76C
:105110009695ECCF5A98F9CF5A98EDCFFF920F930E
:105120001F93CF93DF93EC018C01060F111DC01765
:10513000D10731F4DF91CF911F910F91FF90089526
:10514000F9900E94002868E08F2D0E946D28EFCF13
:105150001F920F920FB60F9211242F933F934F93EC
:105160005F936F937F938F939F93AF93BF93CF93EF
:10517000DF93EF93FF935A98529AC091B306D09160
:10518000B4066D81662321F08E819F810E948E2856
:105190000E94002880E18A95F1F75A9852985A9A0D
:1051A00080E18A95F1F76A81662309F18B819C8100
:1051B0000E943228E881F981882311F088E001C03B
:1051C00082E080830E94F827FF91EF91DF91CF91D9
:1051D000BF91AF919F918F917F916F915F914F910F
:1051E0003F912F910F900FBE0F901F901895E8815F
:1051F000F981E4CFCF93DF93C091B306D091B40689
:10520000F894529A5A9885E08A95F1F700005298DE
:105210005A9A80E28A95F1F74A9B0CC0529A5A9AA0
:10522000E881F98181E08083789481E090E0DF91EA
:10523000CF9108956D81662381F08E819F810E94B8
:10524000322881110AC0529A5A9AE881F98182E083
:105250008083789482E090E0EACF0E94F82780E291
:105260008A95F1F75A98529A80E18A95F1F76A8106
:10527000662321F08B819C810E948E280E94002849
:10528000E881F9811082789490E080E0D0CF991B7A
:1052900079E004C0991F961708F0961B881F7A952D
:1052A000C9F780950895AA1BBB1B51E107C0AA1F2F
:1052B000BB1FA617B70710F0A61BB70B881F991FB7
:1052C0005A95A9F780959095BC01CD01089597FB5B
:1052D000072E16F4009407D077FD09D00E945329B9
:1052E00007FC05D03EF4909581959F4F08957095E9
:1052F00061957F4F0895EE0FFF1F0590F491E02D0B
:1053000009942F923F924F925F926F927F928F9269
:105310009F92AF92BF92CF92DF92EF92FF920F9344
:105320001F93CF93DF93CDB7DEB7CA1BDB0B0FB64E
:10533000F894DEBF0FBECDBF09942A88398848880B
:105340005F846E847D848C849B84AA84B984C884A1
:10535000DF80EE80FD800C811B81AA81B981CE0F98
:10536000D11D0FB6F894DEBF0FBECDBFED0108957D
:10537000FB01DC0102C005900D9241505040D8F76E
:105380000895FB01DC0104C08D910190801921F486
:1053900041505040C8F7881B990B0895AEE0B0E02B
:1053A000E4EDF9E20C948F290D891E898F89988D7F
:1053B00026E02C831A83098397FF02C080E090E8DF
:1053C00001979E838D83AE01455E5F4F698D7A8D17
:1053D000CE0101960E94FE294D815E8157FD0AC0D3
:1053E0002F813885421753070CF49A01020F131FBF
:1053F000F80110822E96E4E00C94AB29AFE0B0E007
:10540000E4E0FAE20C9481297C013B018A01DC0191
:1054100017961C921E92169713968C9181FFC3C10A
:105420009AE0292EFE0131964F01D70113969C91E7
:10543000F30193FD859193FF81913F01882309F446
:1054400048C1853239F493FD859193FF81913F01E5
:10545000853229F4B70190E00E94EC2BE6CFB12C05
:10546000412C512CBFE1B51538F08B3209F188F48D
:10547000803201F1833221F157FC3AC020ED280F30
:105480002A3040F556FE1FC0B29C200D1124B22ECA
:1054900006C08D3291F0803379F7689450F8F301AB
:1054A00093FD859193FF81913F018111DBCF20C056
:1054B000689451F8689452F8F2CF689453F8EFCF9B
:1054C000689454F8ECCF429C200D1124422E68942D
:1054D00055F8E5CF8E3229F456FCFBC0689456F897
:1054E000DECF8C3619F4689457F8D9CF8836B9F2E4
:1054F000982F9F7D95549330C0F08336A1F1833768
:10550000C1F1833509F05BC0D801CD90DD908D01EC
:105510006B2D70E056FC02C06FEF7FEFC6010E945A
:10552000D62B5C01689457F80AC00C5F1F4FEFE35D
:10553000E983AA24A394B12C6401E89457F853FC9E
:1055400004C04A141B0409F018F5342CA114B1044A
:1055500031F5332009F469CFB70180E290E00E9471
:10556000EC2B3A94F6CFD8018C9189830E5F1F4FB4
:10557000E0CFF801C190D1908F016B2D70E056FC07
:1055800002C06FEF7FEFC6010E94E12B5C01D5CF17
:10559000B70180E290E00E94EC2B4A94D2CFF60152
:1055A00057FC859157FE81916F01B70190E00E94F1
:1055B000EC2B31103A94B1E0AB1AB108C7CF843666
:1055C00019F0893609F074C0F80157FE6AC061917C
:1055D0007191819191918F01E52DEF76DE2E97FFEC
:1055E00009C090958095709561957F4F8F4F9F4F23
:1055F0006894D7F82AE030E0A4010E941C2CC82E41
:10560000C818AC2C5D2CD6FE0CC0E89450F8CB1416
:1056100040F4D4FE05C0D2FC03C05D2D5E7E552E45
:10562000AB2C54FE98C0FE01EC0DF11D808180333F
:1056300009F08AC0652D697E562E752D7870372E3B
:1056400053FC98C050FE92C0BC2CA41418F44C0C0F
:10565000B42CBA1854FE94C0B70180E390E00E94C5
:10566000EC2B52FE09C088E790E051FE02C088E5AD
:1056700090E0B7010E94EC2BCB1408F48DC0CA94C3
:10568000D12C8FEFC81AD80AC80CD91CD6018E911C
:105690006D01B70190E00E94EC2B8C149D04B1F7D2
:1056A00058CF61917191072E000C880B990B93CF05
:1056B000D52CE894D4F82AE030E0853739F1F52D7F
:1056C000F97FDF2E8037A9F058F48835A9F08F369E
:1056D000D9F0F701868197812F96E2E10C949D29FC
:1056E0008837B9F7D4FE02C06894D2F820E130E0E0
:1056F0000DC06894D4F8F6CF54FE03C02F2F266057
:10570000D22E20E132E002C028E030E0F801D7FEDE
:1057100015C041915191619171914C875D876E8760
:105720007F878F01A4016C857D858E859F850E9472
:105730001C2CC82EC818E894D7F863CF819191919A
:10574000AC0170E060E0E9CF52FC02C0A39475CFD9
:10575000A394A39472CF852D867809F46ECFF6CFEB
:10576000B70180E290E00E94EC2BA394A414C0F354
:10577000312C70CF342C3A18A41408F46BCFF8CF26
:10578000852D867809F478CF8BE251FE80E257FCB4
:105790008DE2B70190E06ECFB70180E390E00E9408
:1057A000EC2BBA9469CF8FEF9FEF96CFFC01059059
:1057B000615070400110D8F7809590958E0F9F1F13
:1057C0000895FC016150704001900110D8F7809558
:1057D00090958E0F9F1F08950F931F93CF93DF9384
:1057E000182F092FEB018B8181FD09C01FEF0FEFEF
:1057F000812F902FDF91CF911F910F91089582FFFC
:1058000014C02E813F818C819D81281739073CF47B
:10581000E881F981CF0101969983888310838E8175
:105820009F8101969F838E83E3CFE885F985812F41
:105830000995892BA1F3DACFFA01AA27283051F173
:10584000203181F1E8946F936E7F6E5F7F4F8F4FB1
:105850009F4FAF4FB1E03ED0B4E03CD0670F781F10
:10586000891F9A1FA11D680F791F8A1F911DA11DF5
:105870006A0F711D811D911DA11D20D009F468942E
:105880003F912AE0269F11243019305D3193DEF6D6
:10589000CF010895462F4770405D4193B3E00FD08C
:1058A000C9F7F6CF462F4F70405D4A3318F0495D77
:1058B00031FD4052419302D0A9F7EACFB4E0A6955A
:1058C0009795879577956795BA95C9F7009761057C
:1058D000710508959B01AC010A2E069457954795D2
:1058E00037952795BA95C9F7620F731F841F951FC7
:1058F000A01D0895F999FECF92BD81BDF89A992710
:1059000080B50895A8E1B0E042E050E00C94AE2CE0
:10591000262FF999FECF92BD81BDF89A019700B468
:10592000021639F01FBA20BD0FB6F894FA9AF99A08
:105930000FBE08950396272F0E94892C0E94882C61
:10594000252F0E94892C242F0C94892C0196272F17
:105950000E94892C0C94882CDC01CB01FC01F99964
:10596000FECF06C0F2BDE1BDF89A319600B40D92AB
:1059700041505040B8F70895F894FFCFBB12E3129E
:105980008714E312871416133713871442144F1425
:105990009B18F118F718FD18031909190F19151993
:1059A0001B195F1A651A691A771A7B1A7F1A831AEC
:1059B000891A911A951A991A9D1AA91AAD1AB11A2B
:1059C000B51ABB1AD91AC31A6D1A731AA11AA51AD5
:1059D0008D1ABF1ACF1AE21AE81A701B701BED1B42
:1059E000ED1B451C5F1CA51BA51B6A1C581D671DD4
:0259F000671D31
:1059F2000196008C01008C010590010135660021A1
:105A0200007F2200079E092610F90FF50FE10F0112
:105A12000A25640A00E200E900EA00B500B600B710
:105A220000CD008301CC008A01920194012102235E
:105A32000224022502260227022A02B300B4006FC2
:105A420000700034C697940000000036323331F7FC
:105A5200F6F5F400FF0100010000FFFF0000010065
:105A620001FF00000810182028303838302820188C
:045A72001008000018
:00000001FF
